{
  "abi": [
    {
      "type": "function",
      "name": "donateToImage",
      "inputs": [
        {
          "name": "_id",
          "type": "uint256",
          "internalType": "uint256"
        }
      ],
      "outputs": [],
      "stateMutability": "payable"
    },
    {
      "type": "function",
      "name": "getAllNFTs",
      "inputs": [],
      "outputs": [
        {
          "name": "",
          "type": "tuple[]",
          "internalType": "struct nftsIPFS.NFTs[]",
          "components": [
            {
              "name": "title",
              "type": "string",
              "internalType": "string"
            },
            {
              "name": "description",
              "type": "string",
              "internalType": "string"
            },
            {
              "name": "email",
              "type": "string",
              "internalType": "string"
            },
            {
              "name": "category",
              "type": "string",
              "internalType": "string"
            },
            {
              "name": "fundraised",
              "type": "uint256",
              "internalType": "uint256"
            },
            {
              "name": "creator",
              "type": "address",
              "internalType": "address"
            },
            {
              "name": "image",
              "type": "string",
              "internalType": "string"
            },
            {
              "name": "timestamp",
              "type": "uint256",
              "internalType": "uint256"
            },
            {
              "name": "id",
              "type": "uint256",
              "internalType": "uint256"
            }
          ]
        }
      ],
      "stateMutability": "view"
    },
    {
      "type": "function",
      "name": "getImage",
      "inputs": [
        {
          "name": "id",
          "type": "uint256",
          "internalType": "uint256"
        }
      ],
      "outputs": [
        {
          "name": "",
          "type": "string",
          "internalType": "string"
        },
        {
          "name": "",
          "type": "string",
          "internalType": "string"
        },
        {
          "name": "",
          "type": "string",
          "internalType": "string"
        },
        {
          "name": "",
          "type": "string",
          "internalType": "string"
        },
        {
          "name": "",
          "type": "uint256",
          "internalType": "uint256"
        },
        {
          "name": "",
          "type": "address",
          "internalType": "address"
        },
        {
          "name": "",
          "type": "string",
          "internalType": "string"
        },
        {
          "name": "",
          "type": "uint256",
          "internalType": "uint256"
        },
        {
          "name": "",
          "type": "uint256",
          "internalType": "uint256"
        }
      ],
      "stateMutability": "view"
    },
    {
      "type": "function",
      "name": "imagesCount",
      "inputs": [],
      "outputs": [
        {
          "name": "",
          "type": "uint256",
          "internalType": "uint256"
        }
      ],
      "stateMutability": "view"
    },
    {
      "type": "function",
      "name": "listingPrice",
      "inputs": [],
      "outputs": [
        {
          "name": "",
          "type": "uint256",
          "internalType": "uint256"
        }
      ],
      "stateMutability": "view"
    },
    {
      "type": "function",
      "name": "nftImages",
      "inputs": [
        {
          "name": "",
          "type": "uint256",
          "internalType": "uint256"
        }
      ],
      "outputs": [
        {
          "name": "title",
          "type": "string",
          "internalType": "string"
        },
        {
          "name": "description",
          "type": "string",
          "internalType": "string"
        },
        {
          "name": "email",
          "type": "string",
          "internalType": "string"
        },
        {
          "name": "category",
          "type": "string",
          "internalType": "string"
        },
        {
          "name": "fundraised",
          "type": "uint256",
          "internalType": "uint256"
        },
        {
          "name": "creator",
          "type": "address",
          "internalType": "address"
        },
        {
          "name": "image",
          "type": "string",
          "internalType": "string"
        },
        {
          "name": "timestamp",
          "type": "uint256",
          "internalType": "uint256"
        },
        {
          "name": "id",
          "type": "uint256",
          "internalType": "uint256"
        }
      ],
      "stateMutability": "view"
    },
    {
      "type": "function",
      "name": "updateListingPrice",
      "inputs": [
        {
          "name": "_listingPrice",
          "type": "uint256",
          "internalType": "uint256"
        },
        {
          "name": "owner",
          "type": "address",
          "internalType": "address"
        }
      ],
      "outputs": [],
      "stateMutability": "payable"
    },
    {
      "type": "function",
      "name": "uploadIPFS",
      "inputs": [
        {
          "name": "_creator",
          "type": "address",
          "internalType": "address"
        },
        {
          "name": "_image",
          "type": "string",
          "internalType": "string"
        },
        {
          "name": "_title",
          "type": "string",
          "internalType": "string"
        },
        {
          "name": "_description",
          "type": "string",
          "internalType": "string"
        },
        {
          "name": "_email",
          "type": "string",
          "internalType": "string"
        },
        {
          "name": "_category",
          "type": "string",
          "internalType": "string"
        }
      ],
      "outputs": [
        {
          "name": "",
          "type": "string",
          "internalType": "string"
        },
        {
          "name": "",
          "type": "string",
          "internalType": "string"
        },
        {
          "name": "",
          "type": "string",
          "internalType": "string"
        },
        {
          "name": "",
          "type": "address",
          "internalType": "address"
        },
        {
          "name": "",
          "type": "string",
          "internalType": "string"
        }
      ],
      "stateMutability": "payable"
    },
    {
      "type": "function",
      "name": "withdraw",
      "inputs": [
        {
          "name": "_owner",
          "type": "address",
          "internalType": "address"
        }
      ],
      "outputs": [],
      "stateMutability": "nonpayable"
    }
  ],
  "bytecode": {
    "object": "0x608080604052346048575f80546001600160a01b031916732d303feda3042363bc52e486f974601856df30d91781556658d15e17628000600155600355610f95908161004d8239f35b5f80fdfe6080806040526004361015610012575f80fd5b5f3560e01c9081632607aafa14610c0957508063433ea88914610b8057806351cff8d914610aae57806356e224af14610a9157806380cad5a614610a22578063943e96f6146109ae578063c78f19f914610991578063e0391b091461072a5763f2a6cb4c1461007f575f80fd5b60c036600319011261072657610093610ea9565b6024356001600160401b038111610726576100b2903690600401610eda565b6044356001600160401b038111610726576100d1903690600401610eda565b906064356001600160401b038111610726576100f1903690600401610eda565b6084356001600160401b03811161072657610110903690600401610eda565b9060a4356001600160401b03811161072657610130903690600401610eda565b916003545f19811461071257600101806003555f52600260205260405f209085516001600160401b03811161042b576101698354610d94565b601f81116106cd575b50806020601f821160011461066a575f9161065f575b508160011b915f199060031b1c19161782555b6005820180546001600160a01b0319166001600160a01b039098169788179055825160018301906001600160401b03811161042b576101da8254610d94565b601f811161061a575b50806020601f82116001146105b9575f916105ae575b508160011b915f199060031b1c19161790555b805160028301916001600160401b03821161042b57819061022d8454610d94565b601f811161055e575b50602090601f83116001146104fb575f926104f0575b50508160011b915f199060031b1c19161790555b6003810183516001600160401b03811161042b5761027e8254610d94565b601f81116104ab575b50806020601f821160011461044a575f9161043f575b508160011b915f199060031b1c19161790555b6006810184516001600160401b03811161042b576102ce8254610d94565b601f81116103e6575b506020601f821160011461037457936103529361033699969383610344946103659a985f91610369575b508160011b915f199060031b1c19161790555b426007820155600860035491015560405198899860a08a5260a08a0190610ceb565b9088820360208a0152610ceb565b908682036040880152610ceb565b9160608501528382036080850152610ceb565b0390f35b90508801515f610301565b601f19821690835f52805f20915f5b8181106103ce5750936001846103659a98946103529894610344976103369f9c99106103b6575b5050811b019055610314565b8a01515f1960f88460031b161c191690555f806103aa565b9192602060018192868d015181550194019201610383565b825f5260205f20601f830160051c81019160208410610421575b601f0160051c01905b81811061041657506102d7565b5f8155600101610409565b9091508190610400565b634e487b7160e01b5f52604160045260245ffd5b90508501515f61029d565b5f8481528181209250601f198416905b8181106104935750908360019493921061047b575b5050811b0190556102b0565b8701515f1960f88460031b161c191690555f8061046f565b9192602060018192868c01518155019401920161045a565b825f5260205f20601f830160051c810191602084106104e6575b601f0160051c01905b8181106104db5750610287565b5f81556001016104ce565b90915081906104c5565b015190505f8061024c565b5f8581528281209350601f198516905b818110610546575090846001959493921061052e575b505050811b019055610260565b01515f1960f88460031b161c191690555f8080610521565b9293602060018192878601518155019501930161050b565b909150835f5260205f20601f840160051c810191602085106105a4575b90601f859493920160051c01905b8181106105965750610236565b5f8155849350600101610589565b909150819061057b565b90508501515f6101f9565b5f8481528181209250601f198416905b818110610602575090836001949392106105ea575b5050811b01905561020c565b8701515f1960f88460031b161c191690555f806105de565b9192602060018192868c0151815501940192016105c9565b825f5260205f20601f830160051c81019160208410610655575b601f0160051c01905b81811061064a57506101e3565b5f815560010161063d565b9091508190610634565b90508701515f610188565b5f8581528181209250601f198416905b8a8282106106b5575050908360019493921061069d575b5050811b01825561019b565b8901515f1960f88460031b161c191690555f80610691565b6001849560209395849301518155019401920161067a565b835f5260205f20601f830160051c81019160208410610708575b601f0160051c01905b8181106106fd5750610172565b5f81556001016106f0565b90915081906106e7565b634e487b7160e01b5f52601160045260245ffd5b5f80fd5b34610726575f366003190112610726576003545f61074782610f20565b916107556040519384610de8565b808352601f1961076482610f20565b015f5b81811061093f5750505f915b81831061087057836040518091602082016020835281518091526040830190602060408260051b8601019301915f905b8282106107b257505050500390f35b919360019193955060208091603f19898203018552875190610100806108506108236108116107ff6107ef88516101208952610120890190610ceb565b898901518882038b8a0152610ceb565b60408801518782036040890152610ceb565b60608701518682036060880152610ceb565b60808601516080860152888060a01b0360a08701511660a086015260c086015185820360c0870152610ceb565b9360e081015160e0850152015191015296019201920185949391926107a3565b60018301808411610712575f52600260205260405f2060086040519161089583610dcc565b61089e81610e09565b83526108ac60018201610e09565b60208401526108bd60028201610e09565b60408401526108ce60038201610e09565b60608401526004810154608084015260058101546001600160a01b031660a08401526108fc60068201610e09565b60c0840152600781015460e0840152015461010082015261091d8286610f37565b526109288185610f37565b506001810180911161071257600190920191610773565b60209060405161094e81610dcc565b60608152606083820152606060408201526060808201525f60808201525f60a0820152606060c08201525f60e08201525f61010082015282828801015201610767565b34610726575f366003190112610726576020600154604051908152f35b6020366003190112610726576004355f52600260205260405f205f8080803460018060a01b036005870154165af13d15610a1d573d6109ec81610ebf565b906109fa6040519283610de8565b81525f60203d92013e5b610a0a57005b6004018054903482018092116107125755005b610a04565b6040366003190112610726576024356001600160a01b03811690819003610726575f546001600160a01b031603610a5b57600435600155005b60405162461bcd60e51b815260206004820152600e60248201526d27b7363c903a34329037bbb732b960911b6044820152606490fd5b34610726575f366003190112610726576020600354604051908152f35b3461072657602036600319011261072657610ac7610ea9565b5f546001600160a01b039081169116819003610b3b5747908115610aff575f808093819382f115610af457005b6040513d5f823e3d90fd5b60405162461bcd60e51b81526020600482015260146024820152734e6f2066756e647320746f20776974686472617760601b6044820152606490fd5b60405162461bcd60e51b815260206004820152601760248201527f4f6e6c79206f776e65722063616e2077697468647261770000000000000000006044820152606490fd5b34610726576020366003190112610726576004355f52600260205260405f20610ba881610e09565b610365610bb760018401610e09565b92610bc460028201610e09565b90610bd160038201610e09565b600482015460058301546001600160a01b031690610bf160068501610e09565b926008600786015495015495604051998a998a610d0f565b34610726576020366003190112610726576004355f52600260205260405f2090610c3281610dcc565b610c3b82610e09565b8152610365610c4c60018401610e09565b9160208101928352610c6060028501610e09565b9360408201948552610c7460038201610e09565b6060830190815260048201546080840190815260058301546001600160a01b031660a08501908152909190610cab60068501610e09565b928360c087015260086007860154958660e0890152015495866101008201525197519851925190519160018060a01b0390511692604051998a998a610d0f565b805180835260209291819084018484015e5f828201840152601f01601f1916010190565b959193610d596101009894610d4b610d8a9897610d3d9c9e9d9c610d67966101208d526101208d0190610ceb565b908b820360208d0152610ceb565b9089820360408b0152610ceb565b908782036060890152610ceb565b60808601939093526001600160a01b031660a085015283820360c0850152610ceb565b9460e08201520152565b90600182811c92168015610dc2575b6020831014610dae57565b634e487b7160e01b5f52602260045260245ffd5b91607f1691610da3565b61012081019081106001600160401b0382111761042b57604052565b90601f801991011681019081106001600160401b0382111761042b57604052565b9060405191825f825492610e1c84610d94565b8084529360018116908115610e875750600114610e43575b50610e4192500383610de8565b565b90505f9291925260205f20905f915b818310610e6b575050906020610e41928201015f610e34565b6020919350806001915483858901015201910190918492610e52565b905060209250610e4194915060ff191682840152151560051b8201015f610e34565b600435906001600160a01b038216820361072657565b6001600160401b03811161042b57601f01601f191660200190565b81601f8201121561072657803590610ef182610ebf565b92610eff6040519485610de8565b8284526020838301011161072657815f926020809301838601378301015290565b6001600160401b03811161042b5760051b60200190565b8051821015610f4b5760209160051b010190565b634e487b7160e01b5f52603260045260245ffdfea26469706673582212208ee004bf34a5bfd9ca12b78039ba958f25e874c00731a78851eb63e50bde47f464736f6c634300081c0033",
    "linkReferences": {}
  },
  "methodIdentifiers": {
    "donateToImage(uint256)": "943e96f6",
    "getAllNFTs()": "e0391b09",
    "getImage(uint256)": "2607aafa",
    "imagesCount()": "56e224af",
    "listingPrice()": "c78f19f9",
    "nftImages(uint256)": "433ea889",
    "updateListingPrice(uint256,address)": "80cad5a6",
    "uploadIPFS(address,string,string,string,string,string)": "f2a6cb4c",
    "withdraw(address)": "51cff8d9"
  },
  "id": 20
}